:020000040800F2
:1000000068080020A90100087F2D00089B2900082E
:100010007D2D0008EB130008F730000800000000F9
:10002000000000000000000000000000972F000802
:10003000B516000800000000812D0008992F000867
:10004000C3010008C3010008C3010008C301000880
:10005000C3010008C3010008C3010008C301000870
:10006000C3010008C3010008C3010008C301000860
:10007000C3010008C3010008C3010008C301000850
:10008000C3010008C3010008C3010008C301000840
:10009000C3010008C3010008C3010008C301000830
:1000A000C3010008C3010008C3010008C301000820
:1000B000C3010008C3010008C3010008C301000810
:1000C000C3010008C3010008C3010008C301000800
:1000D000C3010008C3010008C3010008C3010008F0
:1000E000C3010008C3010008C301000800F002F8C2
:1000F00000F04AF80AA090E8000C82448344AAF178
:100100000107DA4501D100F03FF8AFF2090EBAE875
:100110000F0013F0010F18BFFB1A43F0010318473B
:10012000283F0000483F0000103A24BF78C878C13B
:10013000FAD8520724BF30C830C144BF04680C60ED
:10014000704700000023002400250026103A28BF35
:1001500078C1FBD8520728BF30C148BF0B60704739
:10016000662903F00087642900F07A800020704738
:100170001FB500F0FDFB04000020002103F046FA4B
:10018000E0601FBD10B510BD00F0F2FC1146FFF796
:10019000EFFF03F04DF800F010FD03B4FFF7F2FF9E
:1001A00003BC00F053FD00000948804709480047A0
:1001B000FEE7FEE7FEE7FEE7FEE7FEE7FEE7FEE717
:1001C000FEE7FEE704480549054A064B7047000074
:1001D0001D300008ED0000086802002068080020BB
:1001E00068040020680400200FB41CB5074B06AA61
:1001F0007B4469460090059800F0A1FB0020694609
:1002000000F0B0FB1CBC5DF814FB0000710700009F
:1002100070B5044685690068C10601D5302600E046
:100220002026C00707D070BDD4E901213046904791
:10023000206A401C20626D1EF6D570BD70B5044664
:1002400085690078C00707D170BDD4E9012120205D
:100250009047206A401C20626D1EF6D570BD0000DC
:100260002DE9F0410646002410687529314616A58F
:1002700010D0AFF30080002802DA404213A507E057
:1002800031688A0701D512A502E0490704D511A5F6
:10029000012401E0AFF3008000210A2206F12407C7
:1002A00009E0B0FBF2FCB0FBF2F302FB1C003030C3
:1002B00078541846491C0028F3D123462A46304674
:1002C000BDE8F04100F0CEB8000000002D000000B5
:1002D0002B000000200000002DE9F05F8946044655
:1002E0004FF0000ADFF824B1FB44C0F820A02046FC
:1002F000E168884700287DD0252806D0D4E901216F
:100300009047206A401C2062F1E700255F462046A6
:10031000E16888472028064607DB312E05D2B81948
:1003200010F8200C08B10543F1E7A80701D525F026
:100330000405C4F81CA00027C4F818A02A2E09D070
:10034000304602F0FDFE38B304EB8708303EC8F8B3
:10035000186019E059F8041B204604EB87029161EC
:10036000E1688847012F064618D1E069002820DAA5
:1003700025F020051DE0D8F8180000EB800006EB02
:1003800040003038C8F818002046E1688847064623
:1003900002F0D6FE0028EED1012F0AD02E2E08D171
:1003A0002046E16888477F1C0646022F45F020055D
:1003B000C4DBA069002803DA404245F00105A061D2
:1003C000E80701D025F01005A6B1A6F141001928D3
:1003D00002D8203645F400654A463146204625605D
:1003E0004D46FFF7BDFE60B1012807D0ED1D25F099
:1003F000070000E007E000F1080978E705F10409CB
:1004000075E730467AE7206ABDE8F09F963C000029
:100410004FF0000200B5134694469646203922BF9D
:10042000A0E80C50A0E80C50B1F12001BFF4F7AFE8
:10043000090728BFA0E80C5048BF0CC05DF804EBCA
:10044000890028BF40F8042B08BF704748BF20F838
:10045000022B11F0804F18BF00F8012B7047704736
:10046000704770472DE9F0470D469946924604467D
:1004700000F124080168880604D5E06921F0100124
:10048000216000E00120A84201DD471B00E00027B9
:10049000A1697A1902EB0900081AA0612078C00648
:1004A00002D42046FFF7B4FE002608E0D4E901217B
:1004B0001AF806009047206A401C761C20624E45C0
:1004C000F4DB2078C0060AD52046FFF7A1FE06E03F
:1004D000D4E9012130209047206A401C2062381E58
:1004E000A7F10107F4DC07E0D4E9012118F80500C1
:1004F0009047206A401C2062281EA5F10105F3DC0C
:100500002046FFF79BFE2078000602D50220BDE8BA
:10051000F0870120FBE770472DE9FF4F0C461E4690
:100520004FF0FF378BB0D2E90001DDF860800A9010
:100530008A46C1F30A5505B93D46002108464FF0E9
:100540000000BAF1000F00F4400005DA00EB800073
:100550004FF4400101EA50004FEA9059B9F1010F00
:1005600000DDB9460A9850EA4A000ED044F6105011
:10057000A5F2FF3545432F14B8F1000F1ED0754288
:10058000291E1EDDC9F100021CE0B8F1010F4FF079
:10059000000001D0302103E0F24305E02154401C6B
:1005A000B042FBDB30460022002121540B99C1F8F8
:1005B0000880C1E900200FB0BDE8F08FBD1B6D1CA5
:1005C000DEE74A4600DA694206A800F05BFA06ABAD
:1005D00093E8070003AB83E8070050460A9900F050
:1005E0003CFB8DE80700A0F500501F3800900398F1
:1005F000002D0ADD42F21F014A460844002303A9E8
:100600000390684600F0A5FD09E0A0F500504A46B9
:100610001F38002303A90390684600F0AFFD8DE862
:1006200007000004000C03D04FF0FF30410800E049
:100630001046B8F1000F03D00022009215461EE0CC
:10064000751E05D400F098F9303262556D1EF9D54B
:10065000B3460122084302D000227F1C04E0207828
:10066000302801D100227F1E002A099784D01DE086
:10067000112D07DA00F080F9303262556D1C50EA16
:100680000102F5D1084302D00098C8B10EE0002164
:10069000681E05E0235C625C63542254401E491CC2
:1006A0008142F7DBAB46A81B401E0990002004F8EE
:1006B0000B000B98099AC0F80880C0E9002B7AE774
:1006C00011264FF0000857E72DE9F04F8846044601
:1006D000D21D22F0070191B0D1E90001CDE90A0154
:1006E00002F00AFD02460B98C00F01D02D2007E052
:1006F0002068810701D52B2002E0202101EAC000FB
:10070000032A099001D0072A05DB0346414620460B
:1007100000F078F90BE12078800601D5E06900E06F
:100720000620B8F1650F814606D0B8F1660F18D0E3
:10073000B8F1670F70D131E00020B9F1110F0090CE
:1007400001DB112301E009F101030AAA01A90CA8A8
:10075000FFF7E2FEDDE90C70002609F10105834692
:1007600047E001204B4600904FF000470AAA01A93C
:100770000CA8FFF7D1FEDDE90DB00C995D4600260F
:1007800010B909F101000D18B9EB050003D4C0F14F
:10079000FF3609F10105A5EB09002BE0B9F1010FC6
:1007A00001DA4FF001090020B9F1110F009048461D
:1007B00001DD112300E003460AAA01A90CA8FFF7F6
:1007C000ABFEDDE90C704D4600268346207800071D
:1007D0000AD4AB4500DA5D4601A8012D04DD4119BC
:1007E00011F8011C302907D04F4502DA17F1040F28
:1007F00004DA012082460FE06D1EEEE7002F02DCD6
:10080000ED1B3E4403E0781CA84200DD7D1CB81BB4
:1008100000F1010A4FF000472078000703D4AA45F1
:1008200001DB4FF0FF3A0021B7F1004F0DF1430813
:100830008DF8431024D002202B23002F01DA7F42B1
:100840002D230A21021EA0F1010000DC5FB197FBFD
:10085000F1FC97FBF1F201FB1C7C17460CF1300C0C
:1008600008F801CDEEE7A8F1010003702188090521
:1008700001D5452100E06521A0F1010800F8011C27
:1008800009980FA9A1EB0807FF1D00B1012041192C
:1008900001EBEA70A1693844081A401EA061207873
:1008A000C00602D42046FFF7B3FC099828B1D4E96A
:1008B00001219047206A401C20622078C00622D582
:1008C0002046FFF7A5FC1EE0002E04DBB34502DD49
:1008D00001A8805D00E03020D4E901219047206A22
:1008E000401C2062761CAAF101005FEA000A0AD1CE
:1008F00000F03EF8C0680168405CD4E901219047EF
:10090000206A401C2062281EA5F10105DCDC07E0FE
:10091000D4E9012118F8010B9047206A401C20629D
:10092000381EA7F10107F3DC2046FFF787FC032000
:1009300011B041E601694A1C02610878704700B5B0
:100940008FB0CDE901310021059105497944CDE908
:10095000031011466846FFF7BFFC0FB000BD000052
:10096000E5FFFFFF0A6802F8010B0A60704700000C
:10097000004870472802002030B5B0F10A024FEA63
:10098000900E71F100034EEA817EB0EB0E0061EB38
:1009900091014FEA101E4EEA017E10EB0E0041EB72
:1009A00011114FEA102E4EEA016E10EB0E0041EBD2
:1009B00011214FEA104E4EEA014E10EB0E0041EBB2
:1009C0001141401841F100014FEAD00040EA417066
:1009D0004FEAD10110EB80054FEA810444EA90749C
:1009E00044EB01046D1944EB0404521BA3414FF086
:1009F000000348BF0A3200D530BD401C41F1000160
:100A000030BD00002DE9F0411F4604460326016871
:100A1000072A01F4006004DB08B116A505E016A55D
:100A200003E008B115A500E015A521F01000206035
:100A3000A069C01EA0610FB1401EA0612046FFF753
:100A4000E7FB4FB1D4E9012138469047206A401CAA
:100A50002062C01C206206E0206AFAE7D4E9012186
:100A600015F8010B9047761EF8D22046FFF7E6FBFB
:100A7000BDE8F0814E414E006E616E00494E460069
:100A8000696E66002DE9F047814616468AB0354802
:100A900078440DC88DE80D0032487844801C03ACC2
:100AA0000DC884E80D0041F69B300844372190FBC7
:100AB000F1F290FBF1F5A5F1800501FB12041B3C5E
:100AC00002D56442012000E00020DFF898A08046B3
:100AD0000027FA44AAF1BE0A0EE0E0070AD0324627
:100AE000684607EB470101230AEB810100F046FB52
:100AF0008DE8070064107F1C002CEED1194F7F4455
:100B0000AE3F19E0E80715D007EB04100DF1180A05
:100B100090E80E008AE80E00C068F04201D19819F2
:100B200008903246012306A903A800F027FB03AB77
:100B300083E807006D10641C002DE3D14FF0010322
:100B400032466946B8F1000F03A802D000F001FB5D
:100B500001E000F013FBC9E90001C9F808200AB060
:100B6000BDE8F0877C35000000487047080200208F
:100B70007546FFF7F9FFAE4605006946534620F07B
:100B80000700854618B020B5FFF71CFBBDE82040E4
:100B90004FF000064FF000074FF000084FF0000B39
:100BA00021F00701AC46ACE8C009ACE8C009ACE8EC
:100BB000C009ACE8C0098D46704710B50446AFF3D4
:100BC00000802046BDE81040FFF7E7BA4FF0013C37
:100BD00050F8042B51F8043B9A4221D1A2EB0C03AC
:100BE000934313EACC1317D150F8042B51F8043B6C
:100BF0009A4215D1A2EB0C03934313EACC130BD109
:100C000050F8042B51F8043B9A4209D1A2EB0C0393
:100C1000934313EACC13DBD04FF00000704700BFC2
:100C2000D01A01BAB1FA81F101F0180122FA01F0EB
:100C3000CB40C1F12001DBB2C0B2C01A2CFA01F3E3
:100C4000D11A914311EAC311E6D170470149182026
:100C5000ABBEFEE72600020070475FEA400C08BF0B
:100C600091F0000F4FEA8C234FEAC12243EA515121
:100C70004FEA1C5018BF00F5F0404FEA300018BF93
:100C800041F000415FEA6C5C00F02980BCF1FF3F5D
:100C900008BF40F080407047130C06BF12044FF0AD
:100CA000100C4FF0000C130E04BF12020CF1080CD4
:100CB000130F04BF12010CF1040C930F04BF920038
:100CC0000CF1020CD30F04BF52000CF1010C1146C1
:100CD0004FF00002A0F11F00A0EB0C00704711F0D4
:100CE000004F08BF704731F000413FF4D5AF0B0C07
:100CF00006BF09044FF0100C4FF0000C0B0E04BFA0
:100D000009020CF1080C0B0F04BF09010CF1040CD3
:100D10008B0F04BF89000CF1020CCB0F04BF4900FC
:100D20000CF1010CCCF12003A0EB0C0022FA03F330
:100D300002FA0CF241EA030100F10100704720F0D1
:100D40007F4C80EA030023F07F47ACEB070303F5F9
:100D50007C5300F0004003F1FF032DE980494FEA86
:100D6000154B09B44FEA144325EA0B4E24EA034815
:100D70000FF2042606EB132749083E785FEA320299
:100D800003FB0667C7F5000707FB06F64FEA543773
:100D90004FEAD64606F1020607FB066CCCF1005C72
:100DA0004FEA1C472CEA074C07FB06F40CFB06F540
:100DB00004EB15464FEA961634BF00204FF0004072
:100DC0004FEAD13706FB07FC4FEA1C4C0CFB0BF734
:100DD000D21B03FB0CF761EB07010CFB0EF7B0EB2A
:100DE000074072EB17420CFB08F734BFA2EB074237
:100DF000B2EB074261EB17414FEA0C444FEA91070F
:100E000006FB07FC4FEA1C4C0CFB0BF7B0EBC74092
:100E100072EB573203FB0CF734BFA2EBC742B2EBC5
:100E2000C74261EB57310CFB0EF7B0EBC70072EB1A
:100E300057720CFB08F734BFA2EBC702B2EBC70234
:100E400061EB5771039F4FEA816141EA921104EB14
:100E5000CC044FEAD1374FEA826206FB07FC42EA34
:100E600090124FEA80604FEA1C4C0CFB0BF7D21B30
:100E700003FB0CF761EB07010CFB0EF7B0EB07402F
:100E800072EB17420CFB08F734BFA2EB0742B2EB40
:100E9000074261EB17414FEA8C554FEA910704EB8B
:100EA0009C2406FB07FC4FEA1C4C0CFB0BF7B0EB39
:100EB000C74072EB573203FB0CF734BFA2EBC742BB
:100EC000B2EBC74261EB57310CFB0EF7B0EBC7003A
:100ED00072EB57720CFB08F734BFA2EBC702B2EB00
:100EE000C70261EB577115EB4C254FEA816141EA6E
:100EF00092114FEA82624FEAD13742EA901206FB22
:100F000007FC44F100044FEA80604FEA1C4C0CFBE4
:100F10000BF7D21B03FB0CF761EB07010CFB0EF781
:100F2000B0EB074072EB17420CFB08F734BFA2EBA3
:100F30000742B2EB074261EB174115EB1C154FEA74
:100F4000813141EA92414FEA823242EA90424FEACD
:100F500080304FEA0C7644F1000448EA03434EEA3D
:100F60000B484FF0000EB2EB080C71EB030724BFE7
:100F7000624639464EEB0E0E4FF0000B0018524100
:100F800049414BEB0B0BB2EB080C71EB03077BF108
:100F9000000B24BF624639464EEB0E0E4FF0000B9D
:100FA0000018524149414BEB0B0BB2EB080C71EBB3
:100FB00003077BF1000B24BF624639464EEB0E0E51
:100FC00051EA020718BF46F0010616EB0E7655F1FE
:100FD000000254F1000103D5BDE88901BDE8008895
:100FE000BDE88901BDE80048B619524141EB010155
:100FF000A3F10103704780807F7E7D7C7B7A7978C6
:10100000777676757473727171706F6E6E6D6C6CCD
:101010006B6A6A696868676666656464636362616F
:101020006160605F5F5E5E5D5D5C5C5B5B5A5A59F0
:10103000595858575756565555555454535352525C
:101040005251515050504F4F4F4E4E4D4D4D4C4CB4
:101050004C4B4B4B4A4A4A494949484848474747FD
:10106000474646464545454444444443434343423A
:10107000424242414141002B9C4630D477002BD064
:101080001CB54FEA370703B44FF010004FF01001C2
:10109000BAF1000F06D0BCF1000FDCBF40F0080031
:1010A00040F008014FF000000FBCBDE810400BF10C
:1010B000010BBBF1010F08BF5FEA170722BF12F156
:1010C000010211F101014FF0004143F1000300F072
:1010D000004043EA00007047F9D35708D0E746EADA
:1010E000064613F1400F4FEA16461FDD13F1200F9D
:1010F000DFBF16430A46002120335B42BED0C3F156
:10110000200746EA064602FA07F74FEA164646EA7D
:101110000706C3F1200722FA03F201FA07F721FAC2
:1011200003F14FF0000342EA0702A7E746EA02068E
:1011300046EA06464FEA164646EA0106BCBF46EABC
:101140000646360C4FF000034FF000024FF000014E
:1011500094E72DE9804C9A46934670B491E83800A4
:1011600007C831EA400C48BF34EA430C03D5FFF707
:10117000E6FDFFF780FFF0BCBDE8008C2DE9804C58
:101180009A46934670B491E8380007C810F0804F33
:1011900008BF13F0804F03D100F005F8FFF76BFF95
:1011A000F0BCBDE8008C20F07F4780EA030023F00C
:1011B0007F4C07EB0C03A3F57C5300F00040A3F138
:1011C000FE0392F0000F00F0B38095F0000F00F0E6
:1011D00077802DE901494FEA11404FEA144621EA90
:1011E000004800FB06FC24EA064708FB06F607FB5E
:1011F00008F800FB07F718EB06484CEB164C4FEAD3
:10120000124B18EB07484FEA15464CEB174022EA01
:101210000B4E0BFB06FC25EA06470EFB06F607FB0A
:101220000EFE0BFB07F71EEB064E4CEB164C4FF079
:1012300000061EEB074E4CEB174B18EB0B0840F16A
:10124000000018EB0E0B58EB000840F100008F1A5D
:101250004FF000013CBFC943661B14BFB5EB040C43
:1012600000213CBFC943F61B4FEA17444EEA8E0EDD
:1012700027EA04454FEA1C4704FB07622CEA074CA7
:1012800005FB07F70CFB05F604FB0CFC16EB074609
:1012900042EB174216EB0C4642EB1C421BEB0606D8
:1012A00058EB0202414146EA9E0601D5BDE801899C
:1012B000B619524141EB0101A3F10103BDE80189D7
:1012C0004FEA14454FEA114724EA054621EA074C44
:1012D00005FB07F406FB07F70CFB06F105FB0CFC0E
:1012E00011EB074144EB17444FEA124711EB0C4155
:1012F00044EB1C4422EA074C05FB07F206FB07F708
:101300000CFB06F605FB0CFC16EB074642EB1742FE
:1013100016EB0C4642EB1C456A1854F1000148BF1D
:101320007047B619524141EB0101A3F10103704727
:1013300095F0000F37D04FEA11424FEA144721EAE7
:10134000024624EA074C02FB07F106FB07F70CFBF9
:1013500006F402FB0CFC14EB074441EB17414FEA87
:10136000154714EB0C4441EB1C4125EA074C02FBEA
:1013700007F506FB07F70CFB06F602FB0CFC16EB69
:10138000074645EB174516EB0C4645EB1C42121978
:1013900051F1000148BF7047B619524141EB0101BC
:1013A000A3F1010370474FEA14454FEA114724EABD
:1013B000054621EA074C05FB07F106FB07F70CFB86
:1013C00006F24FF0000605FB0CFC12EB074241EB66
:1013D000174112EB0C4251EB1C4148BF7047921869
:1013E00041EB0101A3F101037047FEE710B50022B4
:1013F000012100F087F8BDE81040052000F05CB93D
:1014000010B504460298216022716371A0712820F2
:10141000A0720620E0710C20207214206072082057
:10142000E072322000F048F900223321204600F01B
:1014300069F800223321204600F064F8052000F00E
:101440003BF900223221204600F05CF8052000F034
:1014500033F900222021204600F054F8052000F046
:101460002BF9E1790022204600F04CF8217A002285
:10147000204600F047F8617A0022204600F042F84A
:10148000A17A0022204600F03DF8002201212046EA
:1014900000F038F820460022BDE81040022100F09C
:1014A00031B830B4447900238C4201D8641EE1B2D3
:1014B0008479944201D8641EE2B232B1012A06D086
:1014C000022A06D0032A06D007E00B4605E0403189
:1014D00002E0143100E05431CBB230BC43F0800163
:1014E000002200F00FB8012200F00CB870B50C46D5
:1014F000054603E02846641CFFF7F5FF2178002924
:10150000F8D170BD7CB506460807040EF07A01F0EC
:10151000F00518B145F0080544F00804012A01D08F
:101520002AB108E045F0010544F0010403E025F08C
:10153000010524F0010445F004008DF804000120A9
:1015400000F0BAF88DF8055044F004008DF806005C
:10155000012000F0B1F84FF47A708DF80740009048
:101560003179042301AA306800F07CFA7CBD0000C8
:101570002DE9F04700254FF0010A4FF48049DFF8CC
:101580008480214C00F0A4F9206300F0A1F94F46BB
:10159000606302E000F09CF960633946404600F069
:1015A0008DF920B9D4E90C01801C8842F2D828209A
:1015B00002F006F8B94639464746404600F07EF943
:1015C0000028C5F107010AFA01F019D03043C6B26C
:1015D00000F07EF9C4F8300000F07AF96063494603
:1015E000384600F06BF920B1D4E90C01801C884228
:1015F000F2D86D1CEDB2082DC4D33046BDE8F0879B
:101600008643E5E7000C0140000000202DE9FF4182
:10161000002502204FF480444FF00108CDE902502C
:10162000224ECDE900482F466946304600F056F874
:1016300000222146304600F046F9142000F03CF824
:1016400001222146304600F03EF91E2001F0B8FF8D
:10165000CDE901786946304600F040F8282001F0D5
:10166000AFFF2146304600F029F940B9502001F083
:10167000A7FF2146304600F021F900B1012500F016
:1016800027F90B4FC7F8300000F022F978632146A4
:10169000304600F013F920B1D7E90C01801C8842D4
:1016A000F2D804B02846BDE8F0810000000C0140EB
:1016B000000000207047000070B5044600F008F9F3
:1016C0000546601C02D004480078044400F000F98C
:1016D000401BA042FAD370BD380000202DE9F84F1E
:1016E000DFF8B891002409F1040A0AF1040B23463B
:1016F0000F270BF1040EC9E00125A5402A40AA429C
:101700007DD1674ED1F804C0ACEB0608B44532D0A9
:1017100014DCBCF1030F3AD009DCBCF1000F2AD075
:10172000BCF1010F1CD0BCF1020F31D11DE0BCF1A6
:10173000110F17D0BCF1120F2AD119E0B8F5881F8C
:1017400019D006DCB8F5803F15D0B8F5801F1FD141
:1017500011E0B8F5001F0ED0B8F5041F18D10AE04B
:10176000CB6815E0CB681B1D12E0CB6808330FE097
:10177000CB680C330CE08B682BB1012B4FF00803C6
:1017800003D0456104E0042302E0056100E000238A
:10179000FF2A01D8064601E000F104064FEA84055D
:1017A00001D9A5F12005D6F8008007FA05FC28EA42
:1017B0000C0803FA05F548EA0508C6F800804D68EC
:1017C000ED0062D5374DAE6946F00106AE61AD69F8
:1017D00024F0030605F001050095334D06EB050CDA
:1017E000DCF80850A607360F07FA06F825EA0805C0
:1017F000DFF8B880404503D14FF0000817E044E01F
:10180000DFF8AC80404502D14FF001080FE0DFF86F
:10181000A480404502D14FF0020808E0DFF898802C
:10182000404502D14FF0030801E04FF0040808FAE8
:1018300006F848EA0508CCF808804D68D9F8006039
:10184000ED034D4601D5164300E096432E604D68EA
:10185000DAF80060AD03554601D5164300E0964323
:101860002E604D68DBF80060ED025D4601D5164341
:1018700000E096432E604D68DEF80060AD027546CC
:1018800001D5164300E096432E60641C0D682A467D
:10189000E5407FF431AFBDE8F88F0000000401405F
:1018A000000011100010024000000140000801403B
:1018B000000C014000100140001401408068084005
:1018C00000D0012070470AB1016170470904FBE7AD
:1018D00001488068704700003800002070B504009F
:1018E00025D094F83D00002520B984F83C502046CE
:1018F00000F04EF9242084F83D002068016821F0B2
:10190000010101602068016841F400410160206824
:10191000016821F40041016000F068FB4D4A6168F4
:10192000914201D84C4900E04C49884201D2012043
:1019300070BD4B492368B0FBF1F15E6826F03F06AD
:101940000E435E606368934206D94FF49673594321
:101950004FF47A73B1FBF3F12368491C1E6A26F039
:101960003F06314319626168914210D84900401E18
:10197000B0FBF1F2521CC2F30B02042A01D2042084
:1019800022E0B0FBF1F0401CC0F30B001CE0A268A9
:10199000F2B301EBC10303EB0116431EB3FBF6F3F5
:1019A0005B1C43F480431B0549D092B301EBC10299
:1019B00002EB0111401EB0FBF1F0401CC0F30B0024
:1019C00040F4804040F400402168CA694CF6FF733F
:1019D0009A431043C861D4E90710014320680268A4
:1019E00022F0C00211430160D4E9030101432068E1
:1019F000826848F2FF339A4311438160D4E90501BC
:101A000008432168CA6822F0FF021043C86001E061
:101A10000EE016E02068016841F0010101602564D4
:101A2000202084F83D00256384F83E50002070BDDE
:101A300001EB4106431EB3FBF6F35B1CB3E7012049
:101A4000C2E701EB4101401EB0FBF1F0401CC0F3C6
:101A50000B00B7E7A086010080841E0000093D004E
:101A600040420F002DE9F84F1F4690468A46044633
:101A7000DDF82890FFF72CFF054694F83D0020285C
:101A80007FD11923012240492046009501F012F828
:101A9000002876D194F83C00012872D0012084F807
:101AA0003C0020680168C90703D1016841F00101C9
:101AB00001602068016821F400610160212084F840
:101AC0003D00102084F83E0000262664C4F82480DF
:101AD0006785608D20852D48E0622B464A46514639
:101AE000204600F073FF90B920684169806900903A
:101AF00036E02A464946204601F05BF850B1206C9A
:101B0000042804D12068016841F4007101600120BB
:101B1000BDE8F88F606A216800780861606A401C3F
:101B20006062618D491E6185218D491E89B22185C2
:101B300022685369DB435B070BD451B10078106115
:101B4000606A401C6062608D401E6085208D401E72
:101B500020852A464946204600F086FF0028CED13F
:101B6000208D0028C5D154F83D0B016841F4007167
:101B70000160202004F81E09E67766770020C7E799
:101B8000FFE70220C4E70000020010000000FFFF92
:101B900010B586B000210091019102910391006877
:101BA0000F4988421AD10F4CA06940F00800A0618B
:101BB000A069694600F008000490C020009012203F
:101BC0000190032003900848FFF788FDE06940F486
:101BD0000010E061E06900F40010049006B010BD50
:101BE0000054004000100240000C0140024881688F
:101BF000027811448160704738000020074810B512
:101C0000016841F010010160032000F067F80F2027
:101C100000F006F800F024F8002010BD002002407B
:101C200070B50D4D04464FF47A712878B1FBF0F091
:101C30000A490968B1FBF0F000F091FD48B9102C99
:101C400007D200222146501E00F028F800206C60C8
:101C500070BD012070BD000038000020440000204D
:101C60000C4808B5816941F001018161816901F089
:101C700001010091C16941F08051C161C06900F06A
:101C8000805000900448416821F0E06141F000710B
:101C9000416008BD0010024000000140F0B40E4B4E
:101CA0001B680C46C3F30223C3F10705042D00D9BA
:101CB0000425191D072901D2002300E0DB1E01269F
:101CC00006FA05F1491E214099409E40761E1640B5
:101CD0003143F0BC01F024BA0CED00E0064900F0FD
:101CE000070208684FF6FF03184040EA0220034A43
:101CF00010430860704700000CED00E00000FA059A
:101D0000014901200862704700000E4210B529A465
:101D100001461DCC86B08DE81D002AA02A4C006823
:101D200004900020012923D002293AD010291DD186
:101D300061682268D20119D5C1F38342C9031DF835
:101D4000020009D5616804AAC1F34041515C1F4AF1
:101D5000B2FBF1F1484301E01D4948436168490283
:101D600004D440005FF00301B0FBF1F006B010BDF9
:101D7000226AC2F30121012903D1920701D5C803C8
:101D8000F4E7022905D1626A920702D549F640407C
:101D9000ECE70329EAD121688903E7D54FF2244013
:101DA000E4E700F033F96168C1F38131491C49006F
:101DB000DAE7000002030405060708090A0B0C0D08
:101DC0000E0F1010010200000010024000127A00F5
:101DD00000093D002DE9F84305460078354CC00761
:101DE00054D0E0690026C00008D4E06940F080507B
:101DF000E061E069012600F0805000902E48016803
:101E0000C90512D40168804641F480710160FFF772
:101E10005FFD074605E000BFFFF75AFDC01B6428C1
:101E200023D8D8F80000C005F6D5206A10F4407019
:101E300021D0A98801F4407181421CD0206A1F4939
:101E4000012220F440700A6000220A602062C0076C
:101E500011D0FFF73DFD074641F2883808E000BF8A
:101E6000FFF736FDC11B414502D90320BDE8F883C9
:101E7000206A8007F4D5206A696820F4407008431E
:101E800020621EB1E06920F08050E0612878800770
:101E900005D56068A96820F4404008436060287850
:101EA000C00605D56068E96820F4800008436060DA
:101EB0000020DBE700100240007000404004424276
:101EC0002DE9F0470F46050061D0434E306800F021
:101ED0000700B84209D2306820F00700384330606C
:101EE000306800F00700B84251D128683B4C8107A8
:101EF00012D5400703D5606840F4E0606060287840
:101F0000000703D5606840F4605060606068A968AD
:101F100020F0F000084360602878C00728D0686887
:101F2000012810D02168022810D0890700292EDA54
:101F3000616821F0030101436160FFF7C9FC80463D
:101F400041F288390DE021688903EFE78901EDE767
:101F5000FFF7BEFCA0EB0801494502D90320BDE80C
:101F6000F0876068696800F00C00B0EB810FEFD17A
:101F7000306800F00700B8420BD9306820F0070045
:101F800038433060306800F00700B84201D00120CB
:101F9000E5E72878400705D56068E96820F4E06047
:101FA000084360602878000706D56068296920F436
:101FB000605040EAC100606000F038F86168084A8B
:101FC000C1F30311515CC840064908600648006827
:101FD000FFF726FE0020C2E700200240001002406A
:101FE0006A3F0008440000203C00002004480549E6
:101FF00000684968044AC1F30221515CC840704737
:1020000044000020001002407A3F000804480549BF
:1020100000684968044AC1F3C221515CC840704756
:1020200044000020001002407A3F000812A185B051
:102030000FC98DE80F0014A0144A0068049051687D
:10204000134801F00C03042B10D0082B0ED1C1F360
:102050008343C9031DF803000AD5516804AAC1F3DC
:102060004041515C0A4A5043B0FBF1F005B0704763
:1020700008494843FAE70000020304050607080977
:102080000A0B0C0D0E0F1010010200000010024090
:1020900000127A0000093D002DE9F84F040070D0CD
:1020A0002078C04DC00749D06868C0F3810001287E
:1020B00007D06868C0F38100022809D16868C003AE
:1020C00006D52868800339D560680028E7D035E058
:1020D0006068B0F5803F0BD010B1B0F5A02F11D0E3
:1020E000286820F480302860286820F4802002E0EE
:1020F000286840F480302860606890B1FFF7E8FB02
:1021000006460AE0286840F480202860F0E700BF17
:10211000FFF7DEFB801B642873D828688003F7D59F
:102120000CE0FFF7D5FB064605E000BFFFF7D0FB4C
:10213000801B6428F0D828688003F7D420789A4E52
:1021400080074FF001094FF0000839D5686810F09A
:102150000C0F07D06868C0F38100022809D16868B5
:10216000C00306D42868800714D52069012808D147
:1021700010E02069B0B1C6F80090FFF7A9FB074650
:1021800005E00AE1FFF7A4FBC01B0228C4D82868B9
:102190008007F7D52868616920F0F80040EAC1009F
:1021A00028600DE0C6F80080FFF792FB074604E0C8
:1021B000FFF78EFBC01B022823D828688007F7D4BE
:1021C000207800072CD57948A169D9B1C0F80090D2
:1021D000FFF77EFB074604E0FFF77AFBC01B0228EF
:1021E0000FD8686A8007F7D571484FF4FA51006834
:1021F000B0FBF1F0009000BF0098411E0091FAD2B0
:102200000EE080E0C0F80080FFF762FB074604E0C4
:10221000FFF75EFBC01B022875D8686A8007F7D4F9
:102220002078400760D5E8690027C00008D4E86935
:1022300040F08050E861E869012700F0805000908C
:102240005C480168C90513D40168834641F4807174
:102250000160FFF73DFB824606E000BFFFF738FB59
:10226000A0EB0A0064284ED8DBF80000C005F5D5C5
:10227000E06801280AD008B1052813D0286A20F0A8
:1022800001002862286A20F0040002E0286A40F079
:1022900001002862E06841F2883B98B1FFF718FB23
:1022A00082460BE0286A40F004002862EEE700BF97
:1022B000FFF70EFBA0EB0A0159455AD8286A8007A0
:1022C000F6D50CE0FFF704FB824605E0FFF700FBC4
:1022D000A0EB0A0159454CD8286A8007F6D41FB1F3
:1022E000E86920F08050E861E06988B36968C1F36B
:1022F0008101022944D00228C6F8608004D0FFF78B
:10230000E7FA044638E034E0FFF7E2FA074604E073
:10231000FFF7DEFAC01B02282BD828688001F7D40B
:10232000206AB0F5803F05D16868A16820F40030CC
:1023300008436860D4E908010843696821F474110E
:1023400008436860C6F86090FFF7C2FA044606E0EA
:1023500025E000BFFFF7BCFA001B022809D8286857
:102360008001F7D51BE000BFFFF7B2FA001B02287F
:1023700002D90320BDE8F88F28688001F4D40EE06C
:102380000128F7D06868226A00F48031914204D1B4
:10239000616A00F47010884201D00120EAE7002051
:1023A000E8E7000000100240000042428004424280
:1023B0004400002000700040F8B505004FF0000018
:1023C00016460C46009006D02CB1002269462846DD
:1023D00000F019F808B10120F8BD287B2070E87BD7
:1023E000E070697B6170A97BA17056B100F0D2FCEE
:1023F000E070607800F0CEFC6070A07800F0CAFC5D
:10240000A0700020F8BD2DE9F04791460C465FEA28
:1024100000084AD084B3D8F800004068400744D48C
:10242000404600F055FD4FF461620546B0FBF2F105
:10243000B0FBF2F302FB13503C23B0FBF3F0B5FB0F
:10244000F2F6607002FB1650B0FBF3F203FB1200D1
:10245000A070182931D31820B1FBF0F7B1FBF0F2CE
:1024600000FB12102070404600F02BFD411C04D0F0
:10247000A84202D9461B02E017E04FF0FF36A7EB57
:10248000071000EB4000C0EB001005EBC01529461B
:10249000404600F06CFD40B9701C01D0711900E09D
:1024A0003146404600F04FFD10B10120BDE8F087F5
:1024B0003946404600F079FC00E02170B9F1000F88
:1024C0000BD0207800F066FC2070607800F062FC91
:1024D0006070A07800F05EFCA0700020E6E70000CD
:1024E00070B5040003D0607C002610B105E0012027
:1024F00070BD2674204600F043F802206074204628
:1025000000F010F9042578BB204600F0A5FC58BB6C
:102510002068416821F007014160A06820B1174898
:10252000016821F0010101601448001F0168A268E0
:1025300021F46071114301606068411C04D10120E5
:10254000FFF7E4FB80B1401E21688A6822F00F0289
:1025500042EA10428A602168CA6860F30F02CA60CA
:10256000204600F093FC08B16574C0E7E6730120D3
:102570006073A0736074002070BD0000306C004078
:1025800008B50068084988420DD1FFF7B9FB074834
:10259000C16941F00061C161C069054900F0006096
:1025A00000900120086008BD002800400010024093
:1025B0003C0442422DE9F0410D4604003BD0C5B336
:1025C000207C01283AD04FF0010884F810800220C6
:1025D0006074E87872B300F0D4FBE073687800F0C0
:1025E000D0FB6073A87800F0CCFBA073C2B2617B13
:1025F000E07B00F07DFC20732870204600F068FC32
:102600004FF46161B0FBF1F1002518292DD9182292
:10261000B1FBF2F1A1EB011101EB4101C1EB0111A1
:1026200000EBC1163146204600F0A1FC0427C8B9D2
:102630000BE000E004E00120BDE8F0810220FBE7B0
:10264000E07368786073A878CFE7204600F039FC23
:10265000411C0AD0B04208D206490144204600F08D
:1026600072FC10B167742574E5E784F81180257455
:102670000020E1E7805101002DE9F0410D46040002
:1026800024D01DB3207C012823D04FF0010884F80A
:102690001080022060742878EAB100F072FB4FF4D9
:1026A000616100FB01F6687800F06BFBC0EB001085
:1026B00006EB8006A87800F064FB35182946204612
:1026C00000F055FC0026042710BB0FE00120BDE8F8
:1026D000F0810220FBE74FF4616148436978C1EB68
:1026E000011100EB8100A9784518E7E720684168EF
:1026F00021F005014160204600F0E3FB411C0AD0B7
:10270000A84208D206490144204600F01CFC10B142
:1027100067742674DAE784F8118026740020D6E7FF
:102720008051010070B504000AD02068416821F092
:1027300008014160FFF7CCF805464FF47A7608E0CF
:10274000012070BDFFF7C4F8401BB04201D903203F
:1027500070BD206840680007F4D5002070BD10B53A
:10276000401EB0F1807F01D3012010BD4FF0E02466
:1027700060610F21601700F0D3FC0020A0610720EA
:102780002061002010BD000070B590F83C20012AA7
:1027900026D0012480F83C40022280F83D200368C6
:1027A0005A689D6822F070060A6832435A600D4BE1
:1027B00002689A4208D0B2F1804F05D00A4B9A4283
:1027C00002D00A4B9A4204D1496825F0800319438C
:1027D000916080F83D40002180F83C10084670BDB3
:1027E000022070BD002C01400004004000080040A1
:1027F00010B5040003D094F83D0010B107E00120AB
:1028000010BD002084F83C00204600F01FF8022094
:1028100084F83D00211D206800F002FC012084F8AE
:10282000460084F83E0084F83F0084F8400084F8B5
:10283000410084F8420084F8430084F8440084F89E
:10284000450084F83D00002010BD000008B5006878
:102850000649884208D10648C16941F00201C161B8
:10286000C06900F00200009008BD000000040040B4
:102870000010024090F83D10012901D0012070475E
:10288000022180F83D1000680B49884208D0B0F161
:10289000804F05D00949884202D00949884204D1B5
:1028A000816801F00701062903D0016841F00101A8
:1028B0000160002070470000002C0140000400402F
:1028C0000008004070B5044690F83C00012817D07D
:1028D000012584F83C50022084F83D00206882687D
:1028E00022F0770222F47F4282600868502830D0BC
:1028F0000DDC20284DD005DC98B310283BD148E0F2
:10290000022070BD302844D0402834D139E06028FE
:1029100028D0702806D0B0F5805F2CD0B0F5005FCD
:1029200029D10AE0CB68D1E90121206800F0AEFB93
:102930002068816841F0770109E0CB68D1E9012185
:10294000206800F0A3FB2068816841F48041816029
:1029500011E0CA684968206800F0AAFB502120688D
:1029600007E016E0CA684968206800F0B2FB602101
:10297000206800F095FB84F83D50002084F83C006E
:1029800070BDCA684968206800F092FB4021206849
:10299000EFE7226801461046EBE7FEE701684A6967
:1029A000D24352050FD46FF480624A61002140F88F
:1029B000301F202242738173026942F004020261D7
:1029C000017301207047002070470000F8B50446ED
:1029D000C06A1E460D461746082807D0012805D0B4
:1029E00010F5803F02D0206B122804D120680168C6
:1029F00041F480710160134600224FF0011120461E
:102A0000009600F057F840B120680068C00502D574
:102A10004FF4007020640320F8BD2069B0F5804FAA
:102A20000ED00620216800EAD51040F0F0000861C1
:102A300033463A460B49204600F070F878B902E078
:102A400005F0FE0000E0E8B2216808610549334660
:102A50003A46891F204600F061F80028DCD00120AA
:102A6000F8BD00000800010070B516460D4604468A
:102A70000DE02046FFF792FF08B1012070BD681CF1
:102A800005D0FEF725FF801BA84207D835B1206886
:102A90004069C0434007ECD4002070BD002044F8DA
:102AA000300F20216173A073216941F02001216161
:102AB0002073E2E72DE9F0471E4690460D46044696
:102AC000C1F30747DDF8209008E0701C06D0FEF740
:102AD000FFFEA0EB0900B0420FD876B12068012FAD
:102AE00018D0806925EA00000004000C14D00021F1
:102AF0004145EAD00020BDE8F087002044F8300FBF
:102B000020216173A073216941F0200121612073AC
:102B10000120F0E74069E5E70121E9E72DE9F04709
:102B20009A4691460E46044600254FF02008C1F310
:102B3000074725E020684069C043400514D4206859
:102B4000016841F40071016021686FF480604861A0
:102B5000256384F83D8084F83E50206C40F00400EA
:102B6000206484F83C501FE0B9F1FF3F08D0FEF725
:102B7000AFFEA0EB0A0149450CD8B9F1000F09D00E
:102B80002068012F13D0806926EA00000004000CA1
:102B90000BD0CFE744F8305F84F80D80A57320692F
:102BA00040F02000206125730120BDE8F0874069D6
:102BB000EAE770B516460D4604460DE02046FFF7DD
:102BC000EDFE08B1012070BD681C05D0FEF780FE47
:102BD000801BA84207D835B120684069C043000671
:102BE000ECD4002070BD002044F8300F2021617328
:102BF000A073216941F0200121612073E2E7000008
:102C00002DE9F04385B000242448009401940294F7
:102C10000394816941F020018161816901F0200103
:102C20000491816941F004018161816901F004012D
:102C30000491816941F0080181618069DFF8608059
:102C400000F008000490002220214046FEF73BFEE1
:102C5000DFF850904FF48047002239464846FEF78F
:102C600032FE1E2001258DE8310069464046FEF700
:102C700035FD20200226CDE90005CDE90246694652
:102C80004046FEF72BFD00970396CDE901546946B7
:102C90004846FEF723FD05B0BDE8F0830010024072
:102CA00000080140000C01401CB5002418480194A4
:102CB000164900940160611E41604FF4807181608B
:102CC000FFF70EFC08B172B6FEE78DF804408DF8F0
:102CD00005408DF80640012201A90D48FFF7CCFC04
:102CE00008B172B6FEE701208DF800008DF80100F2
:102CF0008DF8020002468DF8034069460448FFF74C
:102D000059FC002801D072B6FEE71CBD0028004027
:102D10009C00002010B586B0002417480094019450
:102D20000294039404941349059401604721C0E977
:102D300001144FF6FE71C0E903148461FFF758FDDA
:102D400008B172B6FEE74FF48050009069460A4819
:102D5000FFF7B8FD08B172B6FEE7049404A906486F
:102D60000594FFF711FD002801D072B6FEE706B00A
:102D700010BD000000040040B0000020FEE7FEE7A8
:102D80007047010901EB810100F00F0000EB4100E9
:102D9000C0B27047002102E00A38C0B2491C0A28BC
:102DA000FAD2090740EA116070472DE9F041044664
:102DB0000025C07B627BA37B42E0012A16D0032A58
:102DC00014D0052A12D0072A10D0082A0ED00A2AB9
:102DD0000CD00C2A0AD0042A10D0062A0ED0092AB8
:102DE0000CD00B2A0AD0022A0DD028E01F2B0CD3BE
:102DF0000C2A05D101221346401C20E01E2B04D3CF
:102E00000123521C1BE01C2B02D203F1010316E02C
:102E100011D183B29E0710D16426B3FBF6F706FBEF
:102E2000173636B94FF4C876B3FBF6F706FB1733FF
:102E30001BB91D2303E01D2B01D1032201236D1CAF
:102E40008D42BAD3D1B2E0736173DAB2A27300F0EB
:102E50004FF82073BDE8F08170B50446FEF738FDE9
:102E600005464FF47A7606E0FEF732FD401BB0428D
:102E700001D9032070BD206840688006F4D5206821
:102E8000416841F010014160002070BD70B50446FA
:102E90000068416821F010014160FEF719FD054608
:102EA0004FF47A7607E000BFFEF712FD401BB042F8
:102EB00001D9032070BD206840688006F4D5002049
:102EC00070BD0168086A496A89B241EA00407047EA
:102ED000006881698AB2C1698BB2816989B28A420C
:102EE00003D0C06961F31F40704743EA0240704756
:102EF000F0B56424C1EBC1030927A500072603EB45
:102F000001130329B3FBF7F100F5FA601144014402
:102F10000AD2401EB0FBF4F201EB9001B0FBF5F0D9
:102F2000891A0844001D08E0B0FBF4F201EB90019F
:102F3000B0FBF5F0891A0844801CB0FBF6F106FBE3
:102F40001100C0B2F0BD70B50D4606460024FFF773
:102F500083FF48B93168280C08623168A8B248621A
:102F60003046FFF793FF00B10124204670BD70B5D5
:102F70000D4606460024FFF76FFF48B93168280C5C
:102F800088613168A8B2C8613046FFF77FFF00B1A1
:102F90000124204670BD7047FEF728BE70B594B07E
:102FA00028216846FDF734FA14210AA8FDF730FA03
:102FB00000250F9509200124109500901195129578
:102FC0004FF4803004940694CDE901050226CDE942
:102FD00007604FF4E01009906846FFF75DF808B10C
:102FE00072B6FEE70F20CDE90A064FF48060CDE906
:102FF0000C5002210AA80E95FEF762FF08B172B6C6
:10300000FEE74FF40070CDE90F400FA8FEF7E2FE97
:10301000002801D072B6FEE714B070BD7047000002
:10302000F0B50268164B174C174D4FF08047984289
:1030300005D0B84203D0A04201D0A84203D122F06B
:1030400070064A683243984205D0B84203D0A04285
:1030500001D0A84203D122F44074CA6822434C69CB
:1030600022F08002224302608A68C2620A68826299
:10307000984201D10969016301214161F0BD00005D
:10308000002C0140000400400008004010B5846896
:1030900042EA032224F47F440A432243826010BDA3
:1030A000826822F070020A4342F007018160704793
:1030B00010B5036A046A24F001040462846924F0F0
:1030C000F00444EA021423F00A020A438461026213
:1030D00010BD10B5036A23F0100303628369046A0C
:1030E00023F4704343EA023224F0A00343EA0111BF
:1030F0008261016210BDFEE7490050EAC12018BF9D
:1031000004204A0D18BF40F0010040F2FF72B2EBFC
:10311000515F08BF40F00200012808BF052070473A
:103120000907090E002804DB00F1E02080F80014F4
:10313000704700F00F0000F1E02080F8141D704788
:1031400030380A2801D20120704700207047000063
:103150002DE9FE43064614460D464FF47A70FEF7FD
:10316000ABFADFF8B8802E4F28E0D8F82800641CAE
:1031700030B1012807D0022809D003280BD00CE079
:10318000172C02DC09E03B2C07DD002405E01F2C96
:1031900003DD012401E00C2CFBDC224621A1684662
:1031A000FDF722F8EAB2F1B21F48FEF77AF9694654
:1031B0001D48FEF79BF9C820FEF77EFA022138462B
:1031C000FEF77CFB0028D0D0EAB2F1B21648FEF739
:1031D00068F916A11448FEF789F900F0FDF92246B6
:1031E00010A16846FDF700F8EAB2F1B20E48FEF70A
:1031F00058F969460C48FEF779F900F0EDF910210D
:103200003846FEF75BFB0028D8D1D8F828102046B6
:10321000491CC8F82810BDE8FE830000000000200B
:103220000008014025640000F80000202020000074
:1032300008B5FEF7E3FCFFF7B1FEFFF7E1FCB64887
:10324000B44900250160B549C0E901154FF480413A
:10325000C0E9035145618561C5610562FEF73EFB2A
:1032600008B172B6FEE7FFF71FFDFFF753FDAA484E
:103270006830FFF7FFFA0420A749009014234E227C
:1032800001F1B000FEF7BCF8A34800221146B030AF
:10329000FEF707F9A048A2A1B030FEF727F99E4833
:1032A00001220021B030FEF7FCF89B48A0A1B0300D
:1032B000FEF71CF94FF4FA60FEF7FEF99648B030BD
:1032C000FEF794F8DFF878829E4EA8F11F077C1F66
:1032D000FEF79CF9002847D0FEF74AF92070FEF768
:1032E00047F96070FEF744F9A070FEF741F9E0700D
:1032F000FEF73EF920712278617893468A460A44A7
:10330000A17889460A44E1780A4482422CD10846D1
:1033100000F01CFB00228C4B00F0C0F900F08CF98F
:103320000090484600F0CAFC009900F0A3FB8749D2
:10333000A06100F0D7FC864900F0FEFB4FF084410D
:1033400000F098FBE061504600F000FB00227E4B4D
:1033500000F0A4F900F070F98146584600F0AEFC88
:10336000494600F087FB2062A06900F057FB024647
:1033700069480B4677A1F830FCF736FF206A00F069
:103380004DFB02460B4678A17B48FCF72DFF6248B7
:1033900000226B495430FFF70FF869495E4800225C
:1033A0001F395430FFF72FF898F803100091724836
:1033B00098F8013098F8022070A18238FCF714FFC9
:1033C000B87800906C487B783A7872A1A038FCF706
:1033D0000BFF694800220221AC38FEF762F866490B
:1033E0008239A1F12A00FEF781F863480122022107
:1033F000AC38FEF756F86049A039A1F10C00FEF791
:1034000075F85D4802221146AC38FEF74AF85A4971
:103410006439A1F14800FEF769F8574803220221F8
:10342000AC38FEF73EF85449A1F1AC00FEF75EF867
:103430004FF46170FEF740F910213046FEF73EFA76
:10344000D8BB4D48AC38FDF7D1FF4B4800221146A0
:10345000AC38FEF726F848482169AC38FEF746F844
:10346000454801220021AC38FEF71BF8424861694B
:10347000AC38FEF73BF8404803220221AC38FEF797
:1034800010F83D4849A1AC38FEF730F8A56200219C
:103490000520E268FFF75CFEE06000210820A268DA
:1034A000FFF756FEA06004213046FEF707FA002819
:1034B000F9D13148AC38FDF799FF3878E168884296
:1034C0007FF406AF7878A1688842F9D101222021E3
:1034D0003046FEF7F8F9E56205E004D1002220212C
:1034E0003046FEF7F0F9E06A401CE0621E28F4DD89
:1034F0004FF008013046FEF7E1F90028E0D1002244
:1035000020213046FEF7DFF9E5601E20A560E0626D
:10351000DEE600000054004048000020A0860100C4
:103520005468696574206B652048544E00000000A3
:1035300048656C6C6F20616E6820656D202100000D
:103540002400002000080140000024400000104139
:103550000000A0404E6869657420646F3A20252EF3
:103560003032662043000000446F20616D3A202510
:103570002E30326600000000A40100204461746512
:103580003A20253032642E253032642E25303264C4
:103590002E00000054696D653A20253032642E25D6
:1035A0003032642E253032642E00000020436865DE
:1035B00020646F2068656E2067696F20000000003E
:1035C000044900220B685A6209684A6A8242FCD3A5
:1035D00070470000B000002070B500240A4D05E0DF
:1035E0003220641CFEF768F80F2C0BDA10212846F5
:1035F000FEF764F9012805D102212846FEF75EF99D
:103600000128EDD070BD00000008014010B5002970
:103610000AD00878002807D005487844FDF7D6FA84
:10362000002801D0002010BD0248784410BD0000E1
:103630004E0A0000460A000021F00042A2F160524A
:10364000B2F5801F01F0004328BFD2F17F6C0BD987
:103650005FEA001C43EAC20242EB507018BF704799
:1036600028BF20F001007047B2F5801FBCBF18468C
:1036700070474FEA410C1CF5001F02D2084600F0CB
:10368000F8BB70B500F075F900000089FFF7F6BFD0
:103690004FF00040A0F58000704700002DE9C041C8
:1036A00030B4DFF8A0C23CEA111418BF3CEA13148E
:1036B00000F0EC8081EA03051CEA111444EAD57499
:1036C00018BF1CEA131500F0C780A4EB05044FF0E7
:1036D000004545EAC12145EAC32341EA505143EA86
:1036E000525304F17F74994204F500344FEAC0202C
:1036F0004FEAC22208BF904200F09C804FEA136557
:103700000FF24016765D4FEA134506FB05F7C7F149
:10371000807706FB07F74FEAD737A7FB03687642A7
:10372000C8F58038A7FB06CE38BFA8F1010807FB13
:1037300008E64FF0000EA6FB028CE6FB03CEDCF1A0
:10374000000CCEF1004E38BFAEF1010EA6FB0C58B6
:103750004FF000074FF00005E6FB0E87A1FB08C6FF
:10376000A0FB07CE16EB0E0645F10005E1FB076551
:1037700015F1E04E7EBFA4F580345FEA46066D4148
:1037800016F1800745F100054FEA17274FEA066654
:1037900047EA0567A6F1DE46B6F1805F4FEA1525D8
:1037A0001FD9384624F0010C05EBC471BCF1FE6F43
:1037B00001EB0C1102D8F0BCBDE8008124425CBFD3
:1037C00001F5801E9EEAC47F02D4F0BCBDE80081F2
:1037D000244238D4F0BCA1F1C041BDE8004100F062
:1037E00016B94FEAD22242EA43524FEAD323A7FB4B
:1037F00002864FEAD02040EA415007FB03661EEAEA
:103800000E0F4FEAD12105FB026658BFA6EB00560A
:10381000B6EB00564FEA520E4EEAC37E18EB0E0E80
:1038200056EB530EBDD518EB02085E417F1C55F1D7
:103830000005B6E74FF480154FF000074FF0000683
:103840004FF00008ADE7F0BC4FF0000001F1C041BF
:1038500001F00041BDE8008111EA0C1F0CEA1315CC
:1038600000D00CE013EA0C1F00F025804FF00000A0
:10387000F0BC81EA030101F00041BDE80081F0BC29
:10388000BDE8004181EA030100F0C1B8F0BCBDE829
:10389000004170B500F06DF8097EFC3E00F007B8FD
:1038A00081EA03014FF0000001F00041704781EA16
:1038B000030100F0ACB8F0BCBDE800414FF00000DF
:1038C00021497047FFFDFBF9F7F5F4F2F0EEEDEB5F
:1038D000E9E8E6E4E3E1E0DEDDDBDAD8D7D5D4D30E
:1038E000D1D0CFCDCCCBCAC8C7C6C5C4C2C1C0BF5A
:1038F000BEBDBCBBBAB9B8B7B6B5B4B3B2B1B0AF60
:10390000AEADACABAAA9A8A8A7A6A5A4A3A3A2A143
:10391000A09F9F9E9D9C9C9B9A99999897979695FE
:1039200095949393929191908F8F8E8E8D8C8C8B9A
:103930008B8A898988888787868585848483838222
:10394000828181800000FF070000F87FB0FA80F3D9
:1039500010FA03F10AD0C3F11D0303F580634FEAA7
:1039600041504FEA035202EBD12170474FF0000063
:1039700070470EF1020E2EF0030E5EF8046B364215
:1039800005D4012A43EB030515F5001F12D80128C1
:1039900041EB010C1CF5001F0CD80ED14FEAD17C75
:1039A00015F5001F0CEB4C0C0CF1020C08BF4CEB96
:1039B000D37C04E04FF0080C01E04FEAD37C0CEB21
:1039C0004C0526FA05F606F00706B6F1040C06D2F9
:1039D0000EEB860CBDE870404CF0010C6047DFE850
:1039E0000CF0090B02024FF000414FF00000A1F56E
:1039F000002170BD19461046012851EB010418BF83
:103A0000D4F5001484BF002001F0004170BD080807
:103A1000A0F500114FEA31017047000043004FEA62
:103A2000D30C4FEA3C0C43401FBF40070CF16051E0
:103A300013F0FE4F70471CF0006F03D100200CF014
:103A4000004170470CF0004343EA507010B540EA63
:103A5000CC0000F0C8F900BF000000924FEA00015E
:103A6000FFF7D5BF4FF000414FF00000A1F5002156
:103A70007047000090EA010F48BF81F0004100F15B
:103A80000482421A3CBF801A89184FEAD0524FF084
:103A90007F4C1CEA410FA2EBD15318BF9CEA026F86
:103AA00000F03B804FF0004C4CEA00204CEA012132
:103AB00021FA03FC10EB0C0C1ED202F1FF325FEA7C
:103AC0001C2040EBC25038BF70471CF07F0F4FEAFC
:103AD000400C18BFBCF17F4F38BF7047C3F12003C3
:103AE000994008BF20F00100BCF17F4F38BF7047FC
:103AF000A0F1C04000F0BDB94FEA3C00000A40EB25
:103B0000C25028BF1CF0FF0F4FEA400CE6D018BF90
:103B1000BCF17F4F38BF7047EAE79CEA026F05D0DF
:103B200010EA5C0F08BF00F00040704710B500F0CD
:103B30005AF900BF64FBBE3E4FF47F0C1CEAD01262
:103B40001EBF1CEAD11392EA0C0F93EA0C0F00F08F
:103B5000858090EA010F48BF42F4807240F4000C67
:103B600041F400002CF07F4120F07F4000B58142FD
:103B7000A2EB03020FF2081CACEB504EC0F10000A8
:103B80009EF800E04FEA4E0E00FB0EFC38BF4900E5
:103B90004FEA2C1C02F5FA020CFB0EF34FEACE1E84
:103BA0004FEA112C4FEAC1210EEB635E42EB224239
:103BB0000EFB0CFC4FEA1C5300FB03114FEA112CC7
:103BC0004FEA01310EFB0CFC4FEADC4C00FB0C1100
:103BD000C14228BF09184CEB03335DF804EB10EB2E
:103BE000410143EBC250B2F57C0F38BF704729D575
:103BF00012F0F00F1CBF00F1C04000F00040704711
:103C0000008182838485868788898B8C8D8E8F91B5
:103C10009293959697999A9C9D9FA0A2A3A5A7A8D9
:103C2000AAACAEB0B2B3B5B7B9BCBEC0C2C5C7C905
:103C3000CCCED1D4D7D9DCDFE2E6E9ECF0F3F7FA69
:103C4000FE0000004FEA400C0CF1807CBCF17E4F7E
:103C500028BF7047B0F1C04000F00BB990EA010FE7
:103C60000CEAD11348BF42F48072624538BF634505
:103C700007D213F47F0F16D080EA010000F0004055
:103C8000704710B500F0AFF8097EFC3E00F005B8B3
:103C900080EA010000F00040704780EA010000F077
:103CA000004000F0E6B812F47F0F04BF02487047EE
:103CB00080EA010000F0DDB80000C07FB0FA80F3B8
:103CC00010FA03F2C3F19D030AD0D90501EB1220CB
:103CD000530638BF704700F1010008BF20F0010013
:103CE000704700004FF47F0C1CEAD0121EBF1CEA84
:103CF000D11392EA0C0F93EA0C0F00F0478090EA80
:103D0000010F48BF42F480724FF0004C4CEA002093
:103D10004CEA012102EB0302A0FB0113A2F5000211
:103D2000002918BF43F001035B0028BF4FEA3303AB
:103D300042EB22425FEA132C4CEBC2502EBFBCEB8D
:103D4000436FB2F57C0F70474FEA036CBCF1004F34
:103D500008BF20F00100B2F57C0F38BF70470BD5CB
:103D600082F0FF0212F5803FC8BF704700F1C040EB
:103D7000D8BF00F00040704700F5000C5FEA4C0C23
:103D800048BF7047B0F1C04000F073B890EA010F2F
:103D90000CEAD11348BF42F48072624538BF6345D4
:103DA00004D280EA010000F00040704710B500F036
:103DB0001AF800BF8900013E00F007B800F009B80A
:103DC0005FEA410C5FEA1C6C08D080EA010000F059
:103DD00050B85FEA400C5FEA1C6CF6D14FF000402F
:103DE000A0F5800070470EF1020E2EF0030E5EF873
:103DF000044B244204D44FEA4102B2F17F4F11D860
:103E00004FEA4003B3F17F4F0CD80ED14FEAD07C7C
:103E1000B2F17F4F0CEB4C0C0CF1020C08BF4CEBD9
:103E2000D17C04E04FF0080C01E04FEAD17C0CEBB0
:103E30004C0324FA03F404F00704B4F1040C06D292
:103E40000EEB840CBDE810404CF0010C6047DFE83D
:103E50000CF0070802024FF00040A0F5800010BDF2
:103E60000846420018BFD2F1807288BF00F00040BF
:103E700010BDFF2141EAD050C005704790EA010F04
:103E800048BF81F000413FF5FCAD421A04D882F0F2
:103E90000042A0EB020011444FEAD0524FF07F4C99
:103EA0001CEA410FA2EBD15318BF9CEA026F4AD023
:103EB0004FF0004C4CEA00204CEA012121FA03FCAF
:103EC000B0EB0C0C0FD412F0FE0F36D05FEA4C00B2
:103ED0001DD5001240EBC25038BF70471CF03F0F99
:103EE00018BF70470BE0A2F101025FEA1C2040EB13
:103EF000C25038BF70471CF07F0F18BF7047C3F126
:103F00002003994014BF401E20F001007047800834
:103F10004FEA122308BF7047B0FA80FCA2EB0C02F4
:103F2000CCF1280C60FA0CF093EA122F04BF00EBDE
:103F3000C25070474FEAC3707047130A5FEADC1043
:103F400008BF7047F6E79CEA026F04D010EA5C0FE6
:103F500008BF0020704710B5FFF745FF40DFF63E71
:103F600081F000407047FCF7AFBB0000000000008C
:103F70000000010203040607080900000000010216
:103F8000030404000008000000000000000200011B
:103F90000000100002400000000000A0000000002F
:103FA00005400000000000C8000000000C400000B8
:103FB0000000409C00000000194000000020BCBE32
:103FC0000000000034400000BFC91B8E0000000448
:103FD000B5400000504BCFD06607E2CF0100000093
:103FE0006C4100003E8251AADFEEA73401000000C0
:103FF000D9420000DCB5A0E23A301F97FFFFFFFF77
:10400000B4450000FD25A0C8E9A3C14FFFFFFFFF95
:10401000FF3F00000000008000000000FF3F0000A4
:10402000000000800000000054494D453A30203A1D
:1040300030203A3020000000444154453A30202DD1
:1040400030202D32320000008440000800000020A3
:104050004800000028010008CC400008480000206B
:1040600020080000440100081C000000430000007C
:10407000F8FFFFFF0C0000000E0000000F00000022
:104080002E00000000000000000000000000000002
:104090000000000028400008384000080000000030
:1040A0000000000000000000000000000000000010
:1040B00000000000000000000000000001000000FF
:0C40C00010000000000000000024F400CC
:04000005080000ED02
:00000001FF
